:100000000C94CE000C94EB000C94EB000C94EB00E1
:100010000C94EB000C94EB000C94EB000C94EB00B4
:100020000C94EB000C94EB000C94EB000C94EB00A4
:100030000C94EB000C94EB000C94EB000C94EB0094
:100040000C94EB000C94EB000C94D90B0C94EB008B
:100050000C94EB000C94EB000C94EB000C94EB0074
:100060000C94EB000C94EB000C94EB000C94EB0064
:100070000C94EB000C94EB000C94EB0005A84CCD19
:10008000B2D44EB93836A9020C50B9918688083CD2
:10009000A6AAAA2ABE000000803F6E616E00696EAB
:1000A000660000407A10F35A00A0724E1809001042
:1000B000A5D4E80000E87648170000E40B540200DD
:1000C00000CA9A3B000000E1F50500008096980008
:1000D000000040420F000000A08601000000102731
:1000E00000000000E80300000000640000000000C1
:1000F0000A00000000000100000000002C76D888F3
:10010000DC674F0823DFC1DFAE59E1B1B796E5E305
:10011000E453C63AE651997696E8E6C28426EB891E
:100120008C9B62ED407C6FFCEFBC9C9F40F2BAA5BB
:100130006FA5F490055A2AF75C936B6CF9676DC153
:100140001BFCE0E40D47FEF520E6B500D0ED902E57
:100150000300943577050080841E080000204E0AB5
:10016000000000C80C333333330F986E12831141F3
:10017000EF8D2114893BE65516CFFEE6DB18D184BE
:100180004B381BF77C1D901DA4BBE42420328472E5
:100190005E228100C9F124ECA1E53D2711241FBE98
:1001A000CFEFD0E1DEBFCDBF12E0A0E0B1E0E0E0F4
:1001B000F0E302C005900D92AC30B107D9F712E020
:1001C000ACE0B2E001C01D92AF3AB107E1F70E9486
:1001D000200F0C94FE170C940000A1E1B0E0E3EFB7
:1001E000F0E00C940F163C017F876E876A01FC01DA
:1001F00017821682838181FD03C06FEF7FEF6FC38B
:100200009E012F5F3F4F398B288BF3012381EE85B1
:10021000FF8523FD859123FF8191FF87EE8788234A
:1002200009F45AC3853251F4EE85FF8523FD85918B
:1002300023FF8191FF87EE87853229F490E0B30197
:100240000E943417E2CF982F10E0882499241032AE
:10025000B0F49B3269F09C3228F4903251F0933222
:1002600071F40BC09D3239F0903349F4116028C00D
:100270001260146025C0186023C0106121C017FDF2
:100280002AC0892F80538A3078F416FF06C0FAE01E
:100290009F9E902C1124980E13C03AE0839E802CD0
:1002A0001124880E10620CC09E3221F416FD14C376
:1002B000106406C09C3611F4106802C0983659F4D8
:1002C000EE85FF8523FD959123FF9191FF87EE87B2
:1002D000992309F0BCCF892F8554833020F4812FD6
:1002E0008061905E07C0892F8556833008F09FC1DA
:1002F000812F8F7E86FD02C076E0972E6FE3F62E6B
:10030000F822953619F4F0E4FF2A07C0963619F45E
:1003100020E8F22A02C091109A94F7FE0AC03BE34B
:10032000391518F45CE3B52E02C0B92CB39427E05C
:1003300009C047E0491520F4BB2447E0942EF7CFCD
:10034000292DBB24C60104969D878C87F601608108
:10035000718182819381AE014F5F5F4F0B2D0E94AF
:1003600046166C010981202E332400FF04C003FDD2
:1003700002C01DE209C0F1FE02C01BE205C0F2FC92
:1003800002C010E001C010E2C1018C709070892B96
:10039000B9F1112311F483E001C084E0881510F055
:1003A00088240AC0881AF3FC07C080E290E0B301F9
:1003B0000E9434178A94C9F7112329F0812F90E005
:1003C000B3010E94341723FE03C00AE910E00EC0F7
:1003D0000EE910E00BC0E114F10409F0805290E046
:1003E000B3010E9434170F5F1F4F05C0EF2CFF248D
:1003F000F0E1EF22FF24F8018491882361F714C112
:10040000F7FE12C0BC0C24FE04C08A81813309F4BB
:10041000BA941B141CF0BB24B3942DC0F8E0FB1558
:1004200050F538E0B32E27C0F6FC25C0892D90E0AA
:100430008C159D054CF02CEFC2162FEFD20624F040
:1004400030E8F32A01C09A94992049F0E2E0F0E004
:10045000EC0FFD1FE90DF11D80818033A1F3F7FE44
:100460000AC0B92CB394892D90E0C816D90614F0AF
:10047000992401C09C18F7FC03C025E030E009C0B6
:100480001C141D041CF021E030E003C096012F5F16
:100490003F4F112311F02F5F3F4F992029F0892DF5
:1004A00090E00196280F391F882D90E02817390712
:1004B00014F0882401C0821A4F2C5524C20189707F
:1004C0009070892B39F008C080E290E0B3010E945F
:1004D00034178A948820C1F7112329F0812F90E0E6
:1004E000B3010E94341743FE07C008C080E390E0C8
:1004F000B3010E9434178A948820C1F7F7FE46C0E2
:100500008601D7FE02C000E010E076010894E11CED
:10051000F11CE01AF10A41E050E04C0F5D1FE40EBF
:10052000F51E26014B185108892D90E0AA24BB2402
:10053000A81AB90A5FEF0F3F150729F48EE290E081
:10054000B3010E943417C016D10634F0401651068C
:100550001CF4F701808101C080E301501040089431
:10056000E11CF11C0A151B052CF090E0B3010E9460
:100570003417E0CF0C151D0539F49A81963318F421
:10058000953311F424FE81E390E04BC08A818133DE
:1005900009F00F7E90E0B3010E9434179920A1F07A
:1005A0008EE290E0B3010E94341712E0E1E0F0E047
:1005B000EC0FFD1FE10FF11D1F5F808190E0B30183
:1005C0000E9434179A9491F744FC03C085E690E0AA
:1005D00002C085E490E0B3010E943417D7FC05C047
:1005E000C114D10441F404FF06C0D094C194D108D1
:1005F000D3948DE201C08BE290E0B3010E943417E6
:1006000080E305C08F5F26EF3FEFC20ED31E3AE0B6
:10061000C316D104BCF790E0B3010E943417C601A1
:10062000C096B3010E943417CC84DD8452C1933646
:1006300031F0933799F0933509F059C023C0F60192
:10064000808189835E010894A11CB11C22E030E006
:10065000C20ED31E21E0E22EF12C12C0F601A080C2
:10066000B18016FD03C06FEF7FEF02C0692D70E00F
:1006700022E030E0C20ED31EC5010E9429177C0182
:100680001F7713C0F601A080B18016FD03C06FEF85
:100690007FEF02C0692D70E022E030E0C20ED31E71
:1006A000C5010E941E177C01106813FF07C01BC004
:1006B00080E290E0B3010E9434178A94882D90E084
:1006C000E816F906A8F30FC0F50117FD859117FF8D
:1006D00081915F0190E0B3010E94341781108A94E8
:1006E0000894E108F108E114F10471F7F2C09436BE
:1006F00011F0993689F517FF08C0F6012081318184
:100700004281538184E090E00AC0F60180819181AA
:100710009C01442737FD4095542F82E090E0C80E9D
:10072000D91E9FE6F92EF12257FF09C0509540953A
:10073000309521953F4F4F4F5F4F90E8F92ACA01FE
:10074000B901AE014F5F5F4F2AE030E00E94A01771
:10075000E82EE889EE1A41C0953721F41F7E2AE081
:1007600030E01CC0197F9F3661F0903720F4983537
:1007700009F0B2C00FC0903739F0983709F0ACC01B
:1007800004C028E030E00AC0106114FD146020E1CC
:1007900030E004C014FD166020E132E017FF08C00D
:1007A000F601608171818281938144E050E008C04C
:1007B000F60180819181BC0180E090E042E050E050
:1007C000C40ED51EAE014F5F5F4F0E94A017E82EEA
:1007D0005889E51A8FE7F82EF122F6FE0BC08EEF4E
:1007E000F822E91438F4F4FE07C0F2FC05C09FEECD
:1007F000F92202C01E2D01C0192DF4FE0DC0FE010C
:10080000EE0DF11D8081803319F4E9EEFE2208C05F
:100810001F5FF2FE05C003C08F2D867809F01F5FB1
:100820000F2DF3FC14C0F0FE0FC0181510F09E2C15
:100830000BC09E2C980C911A182D06C080E290E0F7
:10084000B3010E9434171F5F1815C0F304C01815B8
:1008500010F4811A01C0882404FF0FC080E390E0E7
:10086000B3010E94341702FF1DC001FD03C088E7D9
:1008700090E00EC088E590E00BC0802F867891F064
:1008800001FF02C08BE201C080E2F7FC8DE290E044
:10089000B3010E94341706C080E390E0B3010E94C8
:1008A00034179A94E914C0F3EA94E1E0F0E0EC0F15
:1008B000FD1FEE0DF11D808190E0B3010E94341701
:1008C000EE2091F706C080E290E0B3010E94341759
:1008D0008A948820C1F799CCF30166817781CB0196
:1008E0006196E2E10C942B16806480937C00EAE729
:1008F000F0E0808187608083808180688083808150
:100900008064808380E480937B0011B808958074B4
:1009100080937C00089520917C0087709070287FE0
:10092000282B20937C0080917A00806480937A0049
:1009300080917A0084FFFCCF80917A00806180935F
:100940007A002091780030917900C901089580647F
:1009500080937C000895EF92FF920F931F93482F8E
:10096000CB0120E16030720714F08FEF9FE07C0133
:100970000027F7FC0095102F80912B008F7E80932D
:100980002B00842F80630E944409D801C70124E012
:10099000B695A795979587952A95D1F70E94440912
:1009A0008FE090E0A0E0B0E0E822F9220A231B23C8
:1009B0008E2D8295807F0E94440980912B0080615A
:1009C00080932B0080912B008F7E80932B00809151
:1009D0002B00806180932B001F910F91FF90EF906F
:1009E00008954F925F926F927F928F929F92AF92F3
:1009F000BF92CF92DF92EF92FF920F931F934A0123
:100A00005B0128013901883421F08C3409F06AC077
:100A100035C0409387025093880260938902709397
:100A20008A0200938B0210938C0220938D023093E4
:100A30008E0240938F0250939002609391027093C4
:100A40009202C701B601A50194010E94B8136093F8
:100A50002402709325028093260290932702C301FB
:100A6000B201A50194010E94B8136093280270930B
:100A7000290280932A0290932B0234C04093930260
:100A8000509394026093950270939602009397029C
:100A9000109398022093990230939A02C0929B027D
:100AA000D0929C02E0929D02F0929E02C701B60194
:100AB000A50194010E94B81360932C0270932D023B
:100AC00080932E0290932F02C301B201A5019401DD
:100AD0000E94B81360933002709331028093320207
:100AE000909333021F910F91FF90EF90DF90CF9082
:100AF000BF90AF909F908F907F906F905F904F903E
:100B000008952F923F924F925F926F927F928F92B1
:100B10009F92AF92BF92CF92DF92EF92FF920F938C
:100B20001F93DF93CF93CDB7DEB760970FB6F894DE
:100B3000DEBF0FBECDBF8B01041B150B222717FD97
:100B40002095322F09831A832B833C831D821E82BA
:100B50001F8218868C3409F0B3C0A0902C02B0908C
:100B60002D02C0902E02D0902F0269807A808B8057
:100B70009C8020900C0230900D0240900E0250900C
:100B80000F0260911C0270911D0280911E029091D3
:100B90001F020E94531469877A878B879C87609114
:100BA000300270913102809132029091330220E044
:100BB00030E040E85FE30E944D13A60195010E94DA
:100BC0004D137B018C01C401B3010E9453149B019E
:100BD000AC01C801B7010E9440153B014C01C601A0
:100BE000B50120E030E040E050EC0E94401520E0EC
:100BF00030E040E85FE30E944C137B018C01C201AE
:100C0000B1010E9453149B01AC01C801B7010E94BD
:100C100040159B01AC01C401B3010E944D137B013F
:100C20008C016091100270911102809112029091DA
:100C300013020E9453149B01AC01C601B5010E942E
:100C400040159B01AC01C801B7010E944D132091D2
:100C500093023091940240919502509196020E9425
:100C600040159B01AC0169857A858B859C850E9426
:100C70004D130E9420146D837E838F8398878D810E
:100C80009E81AF81B88580931C0290931D02A09332
:100C90001E02B0931F022092100230921102409265
:100CA00012025092130289819A81AB81BC81809398
:100CB0000C0290930D02A0930E02B0930F02B2C0EB
:100CC000A0902402B0902502C0902602D090270266
:100CD00069807A808B809C8020901402309015026D
:100CE00040901602509017026091200270912102EC
:100CF00080912202909123020E9453146D877E8777
:100D00008F87988B609128027091290280912A0226
:100D100090912B0220E030E040E85FE30E944D1309
:100D2000A60195010E944D137B018C01C401B30102
:100D30000E9453149B01AC01C801B7010E944015E9
:100D40003B014C01C601B50120E030E040E050EC31
:100D50000E94401520E030E040E85FE30E944C1321
:100D60007B018C01C201B1010E9453149B01AC01B3
:100D7000C801B7010E9440159B01AC01C401B30139
:100D80000E944D137B018C01609118027091190231
:100D900080911A0290911B020E9453149B01AC0196
:100DA000C601B5010E9440159B01AC01C801B70105
:100DB0000E944D1320918702309188024091890250
:100DC00050918A020E9440159B01AC016D857E8581
:100DD0008F8598890E944D130E9420146D837E8315
:100DE0008F8398878D819E81AF81B8858093200203
:100DF00090932102A0932202B09323022092180222
:100E00003092190240921A0250921B0289819A81F3
:100E1000AB81BC818093140290931502A0931602BB
:100E2000B09317028D819E81AF81B885815A9F4012
:100E3000A040B04044F080EA9FE0A0E0B0E08D83A5
:100E40009E83AF83B8878D819E81AF81B8858056A0
:100E5000904FAF4FBF4F44F480E690EFAFEFBFEF3E
:100E60008D839E83AF83B8872D813E814F815885C6
:100E7000C90160960FB6F894DEBF0FBECDBFCF910B
:100E8000DF911F910F91FF90EF90DF90CF90BF9077
:100E9000AF909F908F907F906F905F904F903F901A
:100EA0002F900895209128002062209328002091FF
:100EB0002800206120932800892B21F480912800AC
:100EC0008F7D03C0809128008F7E80932800089535
:100ED00080912800806280932800809128008061A2
:100EE000809328000895EF92FF920F931F93CF9362
:100EF000DF93EC018091280080628093280080912C
:100F0000280080618093280080912800806280936F
:100F1000280080912800806180932800209721F488
:100F2000809128008F7D03C0809128008F7E809360
:100F3000280080E60E9444098FEF0E944409F82EA1
:100F4000EE240027F7FC0095102FE0923402F09277
:100F5000350200933602109337028FEF0E94440946
:100F6000282F30E040E050E02E293F29402B512B24
:100F70002093340230933502409336025093370267
:100F800080912800806280932800809128008061F1
:100F900080932800CD2B79F088279927DC01821BCC
:100FA000930BA40BB50B8093340290933502A0935E
:100FB0003602B0933702609134027091350280910D
:100FC000360290913702DF91CF911F910F91FF90E0
:100FD000EF9008950F931F938C010E9473070E9456
:100FE0005314012B29F427E737E747E351E404C002
:100FF00020E030E040E251E40E94B813E62F2E2FAB
:10100000372F482F592FB901CA011F910F91089509
:101010002091280020622093280020912800206140
:1010200020932800209128002062209328002091FE
:101030002800206120932800892B21F4809128002A
:101040008F7D03C0809128008F7E8093280080E2EE
:101050000E9444098091280080628093280080913A
:1010600028008061809328000895CF93DF93EC01DE
:1010700087B1806387B980912800806280932800BF
:1010800080912800806180932800209721F480912E
:1010900028008F7D03C0809128008F7E80932800D8
:1010A00080E20E9444098091280080628093280099
:1010B00080912800806180932800809128008062C0
:1010C00080932800809128008061809328002097D9
:1010D00021F4809128008F7D03C0809128008F7EAD
:1010E0008093280088E80E94440981E00E94440916
:1010F0008091280080628093280080912800806180
:10110000809328008091280080628093280080913D
:101110002800806180932800CD2B21F48091280045
:101120008F7D03C0809128008F7E8093280080E906
:101130000E94440982E00E94440980912800806254
:101140008093280080912800806180932800DF919F
:10115000CF9108950F931F935F988861880F880F30
:101160000E94440980E00E944409082F10E084E0B6
:10117000000F111F8A95E1F710934902009348026E
:1011800080E00E944409282F22952F7030E0202B08
:10119000312B30934902209348025F9AC9011F9175
:1011A0000F9108950E948B0490934B0280934A0202
:1011B000873491051CF490E080E01BC08F389105C6
:1011C00014F094E815C08338910514F09CE810C021
:1011D0008B36910514F094E90BC08735910514F016
:1011E0009CE906C08D34910514F49CEA01C094EA90
:1011F00081E420E030E0492F582FB901CA01089559
:10120000809124008061809324008091240080627A
:101210008093240080912400806880932400809132
:1012200024008F7B8093240083E58CBD80912A006D
:10123000806180932A0080912B008F7E80932B0009
:1012400080912B00806180932B0080912A00806820
:1012500080932A0080912B00806880932B008091DE
:10126000270080628093270080912700806180930F
:1012700027008091280080628093280080912800B8
:1012800080618093280008958EBD0DB407FEFDCFC8
:101290008EB508959B01AC0184E0220F331F441FDB
:1012A000551F8A95D1F760E070E489E191E00E94D2
:1012B000ED15215030403093CD002093CC0088E1D3
:1012C0008093C90086E08093CA000895982F80918A
:1012D000C80085FFFCCF9093CE0008958091C80090
:1012E00087FFFCCF8091CE000895809127008E7FEC
:1012F00080932700809127008B7F80932700809127
:101300002700877F80932700809127008F7B809321
:101310002700089530912600317080912600909129
:1013200026009695209126002695269526952870CC
:101330009470922B932B86958270892B08958E3012
:1013400019F421E030E011C08D3019F422E030E0D2
:101350000CC08B3019F423E030E007C0873019F05F
:1013600020E030E002C024E030E0C90108950E948E
:101370008A090E949F0990934D0280934C0282300B
:10138000910579F0833091051CF40197F9F406C0BA
:101390008330910559F00497C9F413C00E94A1103D
:1013A000089580E090E060E078E014C080E090E094
:1013B00060E070E00E94AB0481E090E060E078E0E3
:1013C0000FC080E090E06FEF7FE004C080E090E02D
:1013D00060E070E00E94AB0481E090E060E070E0CB
:1013E0000E94AB040895009719F0019729F409C0F1
:1013F000809121008E7F08C0809121008E7F809394
:101400002100809121008D7F8093210008950E940A
:101410008B04089525E33AEF4EE85CE30E94401503
:1014200008952F923F924F925F926F927F928F9288
:101430009F92AF92BF92CF92DF92EF92FF920F9363
:101440001F934C017B01B401882777FD8095982F6D
:101450000E94531425E33AEF4EE85CE30E944015E6
:101460005B016C01C6010E94B5131B012C01E80C45
:10147000F91C0027F7FC0095102FC801B7010E9446
:10148000531425E33AEF4EE85CE30E9440157B01DC
:101490008C01C8010E94B5133B014C01C201B1018E
:1014A00026E636E648E153E40E9440151B012C0174
:1014B000C401B30120E030E048EF52E40E9440153F
:1014C0009B01AC01C201B1010E944D136093510216
:1014D000709352028093530290935402B501C60157
:1014E0000E94A3155B016C01B701C8010E94A315FE
:1014F0007B018C01C601B50126E636E648E153E4DE
:101500000E9440155B016C01C801B70120E030E08A
:1015100048EF52E40E9440159B01AC01C601B501A1
:101520000E944D1326E636E64EE053E40E944D132A
:10153000609355027093560280935702909358021D
:1015400081E592E01F910F91FF90EF90DF90CF9097
:10155000BF90AF909F908F907F906F905F904F90D3
:101560003F902F9008950E94070AAA2797FDA09503
:10157000BA2FBC01CD010E9453146093590270939D
:101580005A0280935B0290935C0200D000D000D09E
:1015900020E031E0EDB7FEB73283218363837483AB
:1015A000858396830E9460178DB79EB706960FB607
:1015B000F8949EBF0FBE8DBF0895AF92BF92CF9299
:1015C000DF92EF92FF920F931F93CF93DF93EC0183
:1015D0007B0161E070E00E946A100027F7FC009533
:1015E000102FC801B7010E9453145B016C0120E069
:1015F00030E040E955E40E9440157B018C0120E079
:1016000030E040E85FE30E94B11388231CF461E0FE
:1016100070E024C0C801B70120E03FEF4FE757E476
:101620000E943C151816B4F4C601B50120E030E064
:1016300040E251E40E9440150E9425148CEC91E098
:1016400005C0FC013197F1F76150704061157105DB
:10165000C1F707C0C801B7010E942514CB0101974B
:10166000F1F7CE0160E070E00E946A10C801B70196
:1016700020E030E040E85FE30E94B11388231CF4CF
:1016800061E070E024C0C801B70120E03FEF4FE700
:1016900057E40E943C151816B4F4C601B50120E0C9
:1016A00030E040E251E40E9440150E9425148CEC89
:1016B00091E005C0FC013197F1F761507040611570
:1016C0007105C1F707C0C801B7010E942514CB01FD
:1016D0000197F1F7DF91CF911F910F91FF90EF905C
:1016E000DF90CF90BF90AF900895CF92DF92EF92AE
:1016F000FF920F931F93CF93DF937C018B01C0E088
:10170000D0E09FEFC92E9FE0D92EC701BE010E94F5
:10171000AB04B6016C1B7D0BC8010E94AB04219683
:1017200080E1C030D80789F7CFEFDFE08FEFC82E18
:101730008FE0D82EC701BE010E94AB04B6016C1B1E
:101740007D0BC8010E94AB0421978FEFCF3FD807D4
:1017500089F7DF91CF911F910F91FF90EF90DF906C
:10176000CF9008958130910599F0823091051CF455
:10177000892B39F0089582309105A9F00397C1F4BF
:1017800015C080E090E061E070E00E94750BF9CF39
:1017900080E090E06AEF70E00E94DD0A81E090E076
:1017A0000E94B20BF5CF0E94000908950E94000923
:1017B00008951F920F920FB60F921124EF92FF928D
:1017C0000F931F932F933F934F935F936F937F9349
:1017D0008F939F93AF93BF93EF93FF938091610299
:1017E00090916202A0916302B09164020196A11DE2
:1017F000B11D8093610290936202A0936302B09343
:101800006402609161027091620280916302909122
:101810006402E090EE01F090EF010091F001109170
:10182000F1010E945114A80197010E943C158823E0
:1018300074F110926102109262021092630210928F
:10184000640280915D0290915E02A0915F02B0916E
:1018500060020196A11DB11D80935D0290935E020E
:10186000A0935F02B093600280916502909166023E
:10187000A0916702B09168020196A11DB11D8093ED
:10188000650290936602A0936702B0936802FF918D
:10189000EF91BF91AF919F918F917F916F915F91E8
:1018A0004F913F912F911F910F91FF90EF900F90CB
:1018B0000FBE0F901F901895AF92BF92CF92DF92FC
:1018C000EF92FF920F931F93A090F401B090F50157
:1018D000C090F601D090F701E090F201F090F30192
:1018E000AA2797FDA095BA2FBC01CD010E945314E1
:1018F000A60195010E94B8135B016C010027F7FC5B
:101900000095102FC801B7010E9453149B01AC0130
:10191000C601B5010E944D130E942014CB011F91F6
:101920000F91FF90EF90DF90CF90BF90AF90089510
:10193000AF92BF92CF92DF92EF92FF920F931F93DD
:10194000A090FA01B090FB01C090FC01D090FD0185
:10195000E090F801F090F901AA2797FDA095BA2F21
:10196000BC01CD010E945314A60195010E94B81339
:101970005B016C010027F7FC0095102FC801B7012F
:101980000E9453149B01AC01C601B5010E944D1386
:101990000E942014CB011F910F91FF90EF90DF90D8
:1019A000CF90BF90AF900895EF92FF920F931F9347
:1019B00083E090E00E948B049C018091F80190915B
:1019C000F901E090FA01F090FB010091FC01109107
:1019D000FD01281B390B442737FD4095542FCA01C0
:1019E000B9010E945314A80197010E9440151F914C
:1019F0000F91FF90EF900895EF92FF920F931F9336
:101A000082E090E00E948B049C018091F201909111
:101A1000F301E090F401F090F5010091F6011091CE
:101A2000F701281B390B442737FD4095542FCA0175
:101A3000B9010E945314A80197010E9440151F91FB
:101A40000F91FF90EF9008950F931F93CF93DF9323
:101A500082E090E00E948B048C01C0E0D0E081E045
:101A600090E060E971E00E94AB0480E090E060E00B
:101A700074E00E94AB0421968BE0C83BD80779F74D
:101A800082E090E00E948B04801B910B0B9764F026
:101A900000D084E191E0EDB7FEB7928381830E948C
:101AA000601721E030E00BC000D08CE191E0EDB791
:101AB000FEB7928381830E94601720E030E00F9090
:101AC0000F90C901DF91CF911F910F9108950F934E
:101AD0001F93DF93CF9300D000D0CDB7DEB78B013B
:101AE000883421F08C3409F0EDC074C083E090E0BC
:101AF0000E948B04AC0188E4B8010E948105AA27EA
:101B000097FDA095BA2F89839A83AB83BC8300D0BD
:101B100084E291E0ADB7BEB712969C938E93119775
:101B20000E9460170F900F9083E090E00E948B045A
:101B300000D000D000D0EDB7FEB7319627E231E0FB
:101B4000ADB7BEB712963C932E93119793838283C1
:101B5000158304830E94601729813A814B815C813F
:101B60008CE391E0EDB7FEB792838183ADB7BEB74A
:101B700013962D933D934D935C9316970E94601797
:101B800089819A81AB81BC81EDB7FEB736960FB6DD
:101B9000F894FEBF0FBEEDBFB7FD0DC082E090E030
:101BA00060E070E00E94AB0429813A814B815C8146
:101BB00083E090E084C029813A814B815C8130953B
:101BC00021953F4F82E090E0B9010E94AB0483E091
:101BD00090E063C082E090E00E948B04AC018CE452
:101BE000B8010E948105AA2797FDA095BA2F898385
:101BF0009A83AB83BC8300D089E491E0ADB7BEB7D4
:101C000012969C938E9311970E9460170F900F90DD
:101C100082E090E00E948B0400D000D000D0EDB7AD
:101C2000FEB731962CE431E0ADB7BEB712963C93C7
:101C30002E93119793838283158304830E946017E8
:101C400029813A814B815C8180E691E0EDB7FEB756
:101C500092838183ADB7BEB713962D933D934D9379
:101C60005C9316970E94601789819A81AB81BC8131
:101C7000EDB7FEB736960FB6F894FEBF0FBEEDBFB8
:101C8000B7FD0EC029813A814B815C8180E090E0F4
:101C9000B9010E94AB0481E090E060E070E010C008
:101CA00080E090E060E070E00E94AB0429813A811E
:101CB0004B815C81309521953F4F81E090E0B901E7
:101CC0000E94AB040F900F900F900F90CF91DF9177
:101CD0001F910F91089588E461E871E00E94670DFB
:101CE0008CE463ED72E00E94670D089588E460E97A
:101CF00071E00E94670D8CE468EA72E00E94670D53
:101D0000089588E466EC72E00E94670D8CE463E657
:101D100071E00E94670D089588E46CE073E00E9412
:101D2000670D8CE466ED71E00E94670D0895CF9316
:101D3000DF93C0E0D0E00E948C0E219687E2C03194
:101D4000D807C9F780E090E00E94AF12DF91CF91F1
:101D5000089580E590E00E945C0CBC018CE40E9438
:101D6000670D88E464EE72E00E94670D0895CF93DA
:101D7000DF93C0E0D0E00E94A90E219683E1C8382D
:101D8000D807C9F780E090E00E94AF12DF91CF91B1
:101D900008950F931F938C0100D000D08EE691E040
:101DA000EDB7FEB792838183148303830E9460178B
:101DB0000F900F900F900F90012B19F00E94B70E0B
:101DC00004C080E090E00E94AF121F910F9108952F
:101DD000CF93DF930E948A090E949F09892BD1F338
:101DE00080E090E00E94B412C0E0D0E00E948C0E2F
:101DF00021968BE0C83BD807C9F70E94240DEC015F
:101E000000D000D083E791E0EDB7FEB792838183E5
:101E1000D483C3830E94601728E833E10F900F90AA
:101E20000F900F904CEC51E0CA010197F1F721504F
:101E30003040D1F7CE010E94C90EDF91CF910895B5
:101E40008091790290917A028230910509F449C01B
:101E50008330910534F4009761F0019709F06CC06C
:101E600033C08330910509F449C0049709F064C078
:101E700052C00E948A090E949F099093E1018093B9
:101E8000E00100D000D02CE731E0EDB7FEB732839F
:101E90002183948383830E9460178091E001909155
:101EA000E1010F900F900F900F90009709F040C044
:101EB00000D085E891E0EDB7FEB7928381830E9460
:101EC00060170F900F9038C00E948A090E949F09E6
:101ED0009093E1018093E001009751F50E94810EFB
:101EE0002BC00E948A090E949F099093E101809370
:101EF000E0010097E9F40E94760E1EC00E948A0954
:101F00000E949F099093E1018093E001009781F482
:101F10000E946B0E11C00E948A090E949F09909333
:101F2000E1018093E001009719F40E94A90E04C01A
:101F300090937A028093790200D080EA91E0EDB725
:101F4000FEB7928381830E9460170F900F9080E00C
:101F500090E00895CF92DF92EF92FF920F931F933C
:101F6000CF93DF93EC0190937802809377028130D6
:101F7000910579F50E943A1360E072EC81E090E0FF
:101F80000E944A090E94000982E090E00E947404C5
:101F900083E090E00E9474040E94A11088E440E075
:101FA00050E060EA71E40AE017ED23E23CE30F2E13
:101FB000FDECCF2EFCECDF2EFCECEF2EFDE3FF2E34
:101FC000F02D0E94F1048CE440E050E060EA71E4FE
:101FD00034C00E943A1360E072EC81E090E00E940D
:101FE0004A090E94000982E090E00E94740483E0A4
:101FF00090E00E9474040E94750980E090E00E94C5
:10200000F3090E94A11088E440E050E060EB71E425
:102010000AE017ED23E23CE30F2EFDECCF2EFCECA3
:10202000DF2EFCECEF2EFDE3FF2EF02D0E94F104DD
:102030008CE440E050E060EB71E40AE017ED23E24D
:102040003CE30E94F104CE01DF91CF911F910F91EB
:10205000FF90EF90DF90CF900895DF92EF92FF9284
:102060000F931F93CF93DF93C0E0D0E09BEAE92E5C
:1020700091E0F92E86E0D82E0EEA11E01AC084E035
:1020800090E00E948B0400D000D0EDB7FEB7F28242
:10209000E182948383830E9460170F900F900F90CA
:1020A0000F908CE290E00E9475178D2D8A95F1F7C4
:1020B0002196F4E0C23EDF0714F300D0EDB7FEB77F
:1020C000128301830E946017C0E0D0E00F900F9050
:1020D000F0CF0895009719F0019791F516C0672B7E
:1020E00049F080E090E068EB7BE00E94AB0481E087
:1020F00090E015C080E090E060E070E00E94AB04EA
:1021000081E090E068EB7BE00CC0672B69F082E037
:1021100090E068EB7BE00E94AB0483E090E060E03D
:1021200070E00E94AB04089582E090E060E070E00F
:102130000E94AB0483E090E068EB7BE00E94AB047C
:10214000089580E090E060E070E00E94AB0481E0E0
:1021500090E060E070E00E94AB0482E090E060E01C
:1021600070E00E94AB0483E090E060E070E00E94C9
:10217000AB04089506C080E090E060E070E00E944B
:102180006A1082E090E00E948B048B3F910598F7E3
:1021900006C081E090E061E070E00E946A1083E098
:1021A00090E00E948B048352914098F70E94A11006
:1021B00008950F931F93CF93DF938C01EB0106C01B
:1021C00081E090E060E070E00E946A1083E090E0BF
:1021D0000E945912C817D9079CF706C080E090E00A
:1021E00061E070E00E946A1082E090E00E94591263
:1021F000081719079CF70E94A110DF91CF911F913A
:102200000F910895DF93CF93CDB7DEB78D814885C9
:102210005985FE013A96823469F0833418F481348A
:10222000C1F405C0833449F0843499F409C0809125
:10223000200008C08091230005C08091260002C0C4
:102240008091290020E030E013C0808191810897BF
:1022500060F000D081EB91E0EDB7FEB7928381830F
:102260000E9460170F900F9006C032962F5F3F4F6D
:102270004217530754F7CF91DF9108952F923F9261
:102280004F925F926F927F928F929F92AF92BF9286
:10229000CF92DF92EF92FF920F931F93DF93CF9332
:1022A000CDB7DEB72D892E883F88CE014896AC0188
:1022B000223449F0233408F469C0233439F024343B
:1022C00009F064C060C03091230002C03091260044
:1022D000232F2695217081E090E002C09595879587
:1022E0002A95E2F7482E232F26952695217082E025
:1022F00090E002C0959587952A95E2F7582E232FF6
:10230000269526952695217083E090E002C095954C
:1023100087952A95E2F7682E232F2295217084E075
:1023200090E002C0959587952A95E2F7782E232FA5
:1023300022952695217085E090E002C095958795BD
:102340002A95E2F7882E3295369536953370232FED
:10235000217086E090E002C0959587952A95E2F776
:10236000982E369587E090E002C0959587953A952E
:10237000E2F7082F6A0110E0EE24FF2481EBA82E7B
:1023800081E0B82E42C030912900A2CF30912000C8
:102390009FCFF6018081918183309105E1F08430F7
:1023A00091054CF48130910591F0823091058CF4C7
:1023B000892B21F11AC08530910589F0853091056E
:1023C00064F08630910569F0079779F40CC0142900
:1023D00015C0152913C0162911C017290FC01829B7
:1023E0000DC019290BC0102B09C000D0EDB7FEB7E6
:1023F000B282A1820E9460170F900F900894E11C96
:10240000F11C82E090E0C80ED91E2E143F040CF09F
:10241000C0CF812FCF91DF911F910F91FF90EF904F
:10242000DF90CF90BF90AF909F908F907F906F90F4
:102430005F904F903F902F900895DF93CF93CDB74B
:10244000DEB78D8148855985FE013A96823469F060
:10245000833418F48134C1F405C0833449F08434E2
:1024600099F409C08091210008C08091240005C022
:102470008091270002C080912A0020E030E013C044
:1024800080819181089760F000D081EB91E0EDB7F9
:10249000FEB7928381830E9460170F900F9006C051
:1024A00032962F5F3F4F4217530754F7CF91DF917A
:1024B0000895AA2797FDA095BA2FBC01CD010E94CF
:1024C00053142FE23DED44EA5EE30E94401520E004
:1024D00030E044EB52E40E944C130E942014CB01E4
:1024E0000895AA2797FDA095BA2FBC01CD010E949F
:1024F00053142EE432E64CE950E40E9440150E9449
:102500002014CB01089583E090E00E948B0408958D
:1025100082E090E00E948B0408950E94AA0808952A
:102520000F931F93CF93DF93EC018230910518F046
:102530000FEF1FEF09C00E9473078B01CE010E94AD
:102540000808CE010E940808C801DF91CF911F91B1
:102550000F9108956CE870E00E94F812089560E011
:1025600070E00E94F81208956CE870E00E94F81282
:102570000895EEE6F0E0808181608083789485B5EF
:10258000826085BD0895882309F467BD08959B0185
:10259000AC0184E0220F331F441F551F8A95D1F7E9
:1025A00060E070E489E191E00E94ED152150304037
:1025B0003093C5002093C40088E18093C10086E079
:1025C0008093C2000895982F8091C00085FFFCCFB2
:1025D0009093C6000895FC0107C08091C00085FF5C
:1025E000FCCF9093C600319690819923B1F708955E
:1025F0000F931F93DF93CF93CDB7DEB764970FB6DA
:10260000F894DEBF0FBECDBF2DB73EB72850304087
:102610000FB6F8943EBF0FBE2DBFEDB7FEB7319693
:102620008E010F5F1F4FADB7BEB712961C930E936E
:10263000119724EC31E0338322839583848377835D
:1026400066830E947C172DB73EB7285F3F4F0FB6B9
:10265000F8943EBF0FBE2DBFC8010E94EB126496D6
:102660000FB6F894DEBF0FBECDBFCF91DF911F91A3
:102670000F9108958EEF91E09093AC028093AB029E
:1026800060E072EC81E090E00E94C71208950E9421
:10269000660980E090E008955058BB27AA270ED025
:1026A000A0C169D130F06ED120F031F49F3F11F418
:1026B0001EF45EC10EF4E095E7FB54C1E92FB3D1DF
:1026C00080F3BA17620773078407950718F071F44F
:1026D0009EF5CBC10EF4E0950B2EBA2FA02D0B0169
:1026E000B90190010C01CA01A0011124FF27591B57
:1026F00099F0593F50F4503E68F11A16F040A22F5D
:10270000232F342F4427585FF3CF469537952795CD
:10271000A795F0405395C9F77EF41F16BA0B620BCC
:10272000730B840BBAF09150A1F0FF0FBB1F661F13
:10273000771F881FC2F70EC0BA0F621F731F841F56
:1027400048F4879577956795B795F7959E3F08F07C
:10275000B3CF9395880F08F09927EE0F979587953B
:102760000895DCD008F481E0089514D1E3954AC1BE
:102770000CD037C107D140F0FED030F021F45F3FDC
:1027800019F0F0C0511172C1F3C04DD198F39923E3
:10279000C9F35523B1F3951B550BBB27AA27621725
:1027A0007307840738F09F5F5F4F220F331F441F6A
:1027B000AA1FA9F333D00E2E3AF0E0E830D09150A2
:1027C0005040E695001CCAF729D0FE2F27D0660F8F
:1027D000771F881FBB1F261737074807AB07B0E8CE
:1027E00009F0BB0B802DBF01FF2793585F4F2AF0E4
:1027F0009E3F510568F0B6C039C15F3FECF3983E8B
:10280000DCF3869577956795B795F7959F5FC9F740
:10281000880F911D9695879597F90895E1E0660FC9
:10282000771F881FBB1F621773078407BA0720F042
:10283000621B730B840BBA0BEE1F88F7E0950895AB
:1028400004D06894B11112C10895F5D088F09F5753
:1028500090F0B92F9927B751A0F0D1F0660F771FEC
:10286000881F991F1AF0BA95C9F712C0B13081F0CC
:10287000FCD0B1E00895F9C0672F782F8827B85FA2
:1028800039F0B93FCCF3869577956795B395D9F72D
:102890003EF490958095709561957F4F8F4F9F4F37
:1028A0000895E89409C097FB3EF490958095709543
:1028B00061957F4F8F4F9F4F9923A9F0F92F96E98C
:1028C000BB279395F695879577956795B795F11101
:1028D000F8CFFAF4BB0F11F460FF1BC06F5F7F4F9E
:1028E0008F4F9F4F16C0882311F096E911C07723B0
:1028F00021F09EE8872F762F05C0662371F096E8B9
:10290000862F70E060E02AF09A95660F771F881F87
:10291000DAF7880F9695879597F90895990F00082B
:10292000550FAA0BE0E8FEEF16161706E807F907A1
:10293000C0F012161306E407F50798F0621B730B3C
:10294000840B950B39F40A2661F0232B242B252BBD
:1029500021F408950A2609F4A140A6958FEF811D60
:10296000811D089597F99F6780E870E060E0089501
:102970009FEF80EC089500240A9416161706180697
:102980000906089500240A94121613061406050673
:102990000895EECF50D0E8F3E894E0E0BB279F57CE
:1029A000F0F02AED3FE049EC06C0EE0FBB0F661FCA
:1029B000771F881F28F0B23A62077307840728F050
:1029C000B25A620B730B840BE3959A9572F78038B9
:1029D00030F49A95BB0F661F771F881FD2F7904877
:1029E000BAC0092E0394000C11F4882352F0BB0FD7
:1029F00040F4BF2B11F460FF04C06F5F7F4F8F4F17
:102A00009F4F0895EF93E0FF06C0A2EA2AED3FE052
:102A100049EC5FEB53DEE5DF0F90039401FC905827
:102A2000ECE7F0E0A4C057FD9058440F551F59F053
:102A30005F3F71F04795880F97FB991F61F09F3FAB
:102A400079F087950895121613061406551FF2CFD4
:102A50004695F1DF08C0161617061806991FF1CF24
:102A600086957105610508940895E894BB2766274B
:102A70007727CB0197F9089551DF08F48FEF089578
:102A80000BD0AFCF78DF28F07DDF18F0952309F069
:102A900069CF6ECF1124EACFC6DFA0F3959FD1F3A3
:102AA000950F50E0551F629FF001729FBB27F00DFC
:102AB000B11D639FAA27F00DB11DAA1F649F662751
:102AC000B00DA11D661F829F2227B00DA11D621FA0
:102AD000739FB00DA11D621F839FA00D611D221F5A
:102AE000749F3327A00D611D231F849F600D211D3E
:102AF000822F762F6A2F11249F5750408AF0E1F0E1
:102B000088234AF0EE0FFF1FBB1F661F771F881F29
:102B100091505040A9F79E3F510570F023CFA6CFAA
:102B20005F3FECF3983EDCF3869577956795B79514
:102B3000F795E7959F5FC1F7FE2B880F911D96953E
:102B4000879597F908959F9325DF0F9007FCEE5F17
:102B500059CF9F3F31F0915020F487957795679535
:102B6000B795880F911D9695879597F908959F932E
:102B70008F937F936F93FF93EF939B01AC0180DF63
:102B8000EF91FF9105D02F913F914F915F9178CFB9
:102B9000DF93CF931F930F93FF92EF92DF927B010E
:102BA0008C01689405C0DA2EEF0176DFFE01E8940F
:102BB000A5912591359145915591AEF3EF017EDDBB
:102BC000FE019701A801DA9479F7DF90EF90FF906A
:102BD0000F911F91CF91DF910895A1E21A2EAA1BA8
:102BE000BB1BFD010DC0AA1FBB1FEE1FFF1FA217BD
:102BF000B307E407F50720F0A21BB30BE40BF50BBA
:102C0000661F771F881F991F1A9469F76095709542
:102C1000809590959B01AC01BD01CF0108952F9245
:102C20003F924F925F926F927F928F929F92AF925C
:102C3000BF92CF92DF92EF92FF920F931F93CF93A9
:102C4000DF93CDB7DEB7CA1BDB0B0FB6F894DEBF40
:102C50000FBECDBF09942A88398848885F846E8466
:102C60007D848C849B84AA84B984C884DF80EE80B0
:102C7000FD800C811B81AA81B981CE0FD11D0FB6B9
:102C8000F894DEBF0FBECDBFED010895283008F0E7
:102C900027E03327DA01990F311D87FD91600096F7
:102CA0006105710539F432602E5F3D9330E32A955A
:102CB000E1F708959F3F30F080387105610509F014
:102CC0003C5F3C5F3D93913008F08068911DDF933D
:102CD000CF931F930F93FF92EF92192F987F9695A2
:102CE000E92F96959695E90FFF27E450FF4F992716
:102CF0003327EE24FF24A701E701059008940794E9
:102D000028F4360FE71EF81E491F511D660F771F66
:102D1000881F991F0694A1F70590079428F4E70EE1
:102D2000F81E491F561FC11D770F881F991F661F68
:102D30000694A1F70590079428F4F80E491F561F32
:102D4000C71FD11D880F991F661F771F0694A1F713
:102D50000590079420F4490F561FC71FD81F990FDD
:102D6000661F771F881F0694A9F784911095177026
:102D700041F0D695C79557954795F794E7941A95DE
:102D8000C1F7E2EAF0E068941590159135916591EC
:102D9000959105907FE27395E118F10A430B560B6C
:102DA000C90BD009C0F7E10CF11E431F561FC91F04
:102DB000D01D7EF4703311F48A95E6CFE89401506B
:102DC00030F0080F0AF40027021708F4202F23958B
:102DD000022F7A3328F079E37D932A95E9F710C022
:102DE0007D932A9589F6069497956795379517955B
:102DF0001794E118F10A430B560BC90BD00998F050
:102E000023957E9173957A3308F070E37C932013B9
:102E1000B8F77E9170617D9330F0839571E37D9377
:102E200070E32A95E1F71124EF90FF900F911F9125
:102E3000CF91DF91992787FD90950895FC0105902A
:102E4000615070400110D8F7809590958E0F9F1FAC
:102E50000895FC016150704001900110D8F78095F1
:102E600090958E0F9F1F08950F931F93CF93DF931D
:102E70008C01EB018B8181FF1BC082FF0DC02E8175
:102E80003F818C819D812817390764F4E881F9819D
:102E90000193F983E88306C0E885F985802F0995B9
:102EA000892B31F48E819F8101969F838E8302C08E
:102EB0000FEF1FEFC801DF91CF911F910F91089580
:102EC000A0E0B0E0E6E6F7E10C941F16FE013596AF
:102ED000619171918091AB029091AC02AF010E941F
:102EE000ED002096E2E00C943B166091AB027091ED
:102EF000AC020E9434170895AEE0B0E0E2E8F7E1DA
:102F00000C941D160D891E8986E08C831A83098313
:102F10008FEF9FE79E838D839E01275E3F4FCE01FB
:102F200001966F89788DA9010E94ED002F81388567
:102F3000020F131FF80110822E96E4E00C9439164C
:102F4000FA01AA27283051F1203181F1E8946F93DA
:102F50006E7F6E5F7F4F8F4F9F4FAF4FB1E03ED080
:102F6000B4E03CD0670F781F891F9A1FA11D680F1E
:102F7000791F8A1F911DA11D6A0F711D811D911D51
:102F8000A11D20D009F468943F912AE0269F1124C6
:102F90003019305D3193DEF6CF010895462F47702A
:102FA000405D4193B3E00FD0C9F7F6CF462F4F7085
:102FB000405D4A3318F0495D31FD4052419302D0E3
:102FC000A9F7EACFB4E0A695979587957795679589
:102FD000BA95C9F700976105710508959B01AC0189
:102FE0000A2E06945795479537952795BA95C9F7B0
:102FF000620F731F841F951FA01D0895F894FFCFC3
:1030000043757272656E74286D4129203D202566D6
:10301000200A0D006C696768740A0D0068656176A6
:10302000790A0D0048200020486967684144433A06
:103030002025642C5365743A2025640020504944AF
:103040003A20256C642C207C004C2000204C6F77AB
:103050004144433A2025642C5365743A202564008A
:10306000205049443A20256C642C200A0D00256428
:103070000A0D0078203D2025640A0D0062203D20C5
:1030800025640A0D0077616974696E6720666F7246
:1030900020627574746F6E2070726573730A0D0010
:1030A000456E64204D61696E0A0D002564000A0DAD
:1030B00000696E76616C696420706F727420696E4D
:1030C00070757400536574736572766F2825642C6F
:1030D00025303364290A0D00EC51783F0000804010
:1030E0000000803F71F5833F0000803F0100000039
:1030F0001041A4013BA8833E9A016666663E00002B
:0C31000000020000000047130000000067
:00000001FF
